:100000000C9434000C9451000C9451000C94510049
:100010000C9451000C9451000C9451000C9451001C
:100020000C9451000C9451000C9451000C9451000C
:100030000C9451000C9451000C9453000C945100FA
:100040000C9451000C9451000C9451000C945100EC
:100050000C9451000C9451000C9451000C945100DC
:100060000C9451000C94510011241FBECFEFD4E02A
:10007000DEBFCDBF11E0A0E0B1E0EEEDF2E002C0E6
:1000800005900D92AE30B107D9F714E0AEE0B1E0C3
:1000900001C01D92A63DB107E1F70E9482000C94B9
:1000A0006D010C9400001F920F920FB60F92112455
:1000B0008F9380911401882311F45A9A1DC0809166
:1000C0001401813011F45A9A12C0809114018A30BF
:1000D00011F45A980CC08091D50480FF02C05A9A3E
:1000E00001C05A988091D50486958093D50480915B
:1000F00014018150809314018F910F900FBE0F90C7
:100100001F9018951F93CF93DF9314BE88E10FB60D
:10011000F89480936000109260000FBE539A529A38
:10012000589A10920F0110920E0110921101109224
:10013000100110921301109212015A9A1092140198
:1001400082E084BD85BD80ED87BD80916E008260B8
:1001500080936E000E942A017894C0ECD3E01AE0EC
:100160000E943801009731F10E9422012091120172
:100170003091130193E0203C3907E0F4E0910E0147
:10018000F0910F01EB5EFE4F808380910E01909104
:100190000F010196BE010E94590190930F018093B7
:1001A0000E01809112019091130101969093130119
:1001B000809312018091120190911301009781F2B6
:1001C00080911401882361F68091120190911301AE
:1001D0000097E9F0E0911001F0911101EB5EFE4F04
:1001E000208180911001909111010196BE010E9421
:1001F0005901909311018093100180911201909107
:1002000013010197909313018093120101C02FEF06
:100210002093D50410931401A3CF1F93182F8A3075
:1002200019F48DE00E940D018091C00085FFFCCF84
:100230001093C600212F332727FD3095812F932F50
:100240001F9108958091C00087FFFCCF8091C60068
:1002500090E008958CE08093C4001092C50088E17E
:100260008093C100E0ECF0E080818D7F8083089571
:100270008091C000992787FD9095892F881F882736
:10028000881F90E00895EF92FF92CF93DF93E82EBE
:10029000E7017E01F92EE70102C00E940D0189915C
:1002A0008823D9F780E090E0DF91CF91FF90EF9025
:1002B0000895AA1BBB1B51E107C0AA1FBB1FA617AD
:1002C000B70710F0A61BB70B881F991F5A95A9F7FF
:0E02D00080959095BC01CD010895F894FFCF64
:0E02DE0000000003000000000D0122010000DE
:00000001FF
